:100000000FC033C032C031C030C0D7C12EC02DC0E8
:100010002CC02BC02AC029C028C027C026C0BA02C5
:1000200011241FBECFE5D2E0DEBFCDBF10E0A0E6B9
:10003000B0E0E0EBF5E002C005900D92A838B10702
:10004000D9F720E0A8E8B0E001C01D92A13BB207BB
:10005000E1F710E0C0E1D0E003C02197FE01A0D29B
:10006000CF30D107D1F7F3D195C2CACFC09AC29A87
:10007000BA9AB89A8FEF8FB98AE28DB980EF8EB9AC
:10008000089578948AB582608ABD8AB581608ABDF8
:1000900083B7826083BF83B7816083BF89B7826083
:1000A00089BF80B7826080BF80B7816080BF329A8D
:1000B000319A3098379A08958330910528F0880F47
:1000C000991F04970197F1F708953FB7F89480912D
:1000D000AC009091AD00A091AE00B091AF0022B7FE
:1000E00008B601FE05C02F3F19F00196A11DB11DF4
:1000F0003FBFBA2FA92F982F8827820F911DA11DCE
:10010000B11DBC01CD0143E0660F771F881F991F09
:100110004A95D1F708958F929F92AF92BF92CF9256
:10012000DF92EF92FF926B017C01CFDF4B015C010C
:10013000C114D104E104F104E9F0C7DFDC01CB0113
:1001400088199909AA09BB09883E9340A105B10500
:1001500078F321E0C21AD108E108F10888EE880E90
:1001600083E0981EA11CB11CC114D104E104F10468
:1001700021F7DECFFF90EF90DF90CF90BF90AF9050
:100180009F908F900895AF92BF92CF92DF92EF929F
:10019000FF920F931F93CF93DF936C017B018B0131
:1001A000040F151FEB015E01AE18BF08C017D10781
:1001B00059F06991D601ED91FC910190F081E02D0B
:1001C000C6010995892B79F7C501DF91CF911F9160
:1001D0000F91FF90EF90DF90CF90BF90AF90089578
:1001E000089580E090E00895C29AC29BFECF8DE012
:1001F0008A95F1F70000C0988AE08A95F1F700C06F
:10020000C298C09A779905C083E08093B00080E0DF
:10021000089581E008958EB98BE29DE09A95F1F7FB
:1002200000008DB9B29BFECF9AE09A95F1F700C01D
:100230008DB9769BF2CF8DE08A95F1F700008FB1F2
:100240009FEF9FB9B89A0895DF92EF92FF920F93B4
:100250001F93CF93DF93FC019481990F90939400A7
:100260008385682B81E08093A6006093950083E0EE
:100270008093B000B9DF882309F450C012E0C4E9CC
:10028000D0E00FEFDD24D3948091B00083709E0105
:100290002F5F3F4F7901882369F1C29888818FB918
:1002A00080EFB9DFB8988EEFB6DF9091B00080FF95
:1002B0000BC0892F817090FF05C081E08093B00052
:1002C00080E02CC092E00FC0892F8570843071F4DB
:1002D00080919400816080939400D092B00084DF7C
:1002E000811115C09AE09093B00018C09E7F909342
:1002F000B0000BC0B89880EF8EDF8883113011F406
:100300000FB901C01FB88EEF86DFE70103C012E00E
:10031000C4E9D0E0115009F0B7CF81E01092A600F7
:10032000882391F0C098C29AB29BFECF3AE03A95EA
:10033000F1F700C0C09A8DE08A95F1F70000759939
:1003400003C084E08093B000DF91CF911F910F91A3
:10035000FF90EF90DF9008950F931F93CF938C0140
:10036000C62F72DF6C2F6460C8016EDF81E090E001
:10037000A3DE6C2F6B7FC80167DF82E390E0CF9133
:100380001F910F9199CE0F931F93CF93DF938C0101
:10039000D62FC42F607F642BDFDF6D2F6295607FC7
:1003A0006C2BC801DF91CF911F910F91D5CF41E008
:1003B000EADF81E090E00895EFD01F920F920FB630
:1003C0000F9211242F933F938F939F93AF93BF93DB
:1003D0008091A8009091A900A091AA00B091AB00D3
:1003E0003091A70026E0230F2D3720F40296A11D9F
:1003F000B11D05C029E8230F0396A11DB11D20934F
:10040000A7008093A8009093A900A093AA00B0939E
:10041000AB008091AC009091AD00A091AE00B09186
:10042000AF000196A11DB11D8093AC009093AD006B
:10043000A093AE00B093AF00BF91AF919F918F9109
:100440003F912F910F900FBE0F901F90189519DEBE
:100450000DDE0CDE10928D0080919200823018F03B
:1004600098E090938D008093900062E370E080E0CC
:1004700090E051DE6091930088E890E0E5DE68EE60
:1004800073E080E090E047DE60E388E890E064DFBE
:1004900084E991E111DE60E388E890E05DDF84E9C2
:1004A00091E10ADE60E388E890E056DF86E990E0BB
:1004B00003DE60E288E890E04FDF60918D006062CB
:1004C00040E088E890E05FDF84E080938E0040E0C9
:1004D0006CE088E890E057DF40E061E088E890E079
:1004E00052DF80ED97E0E8DD82E080938F0040E00E
:1004F00066E088E890E047DF40E062E088E890E06E
:1005000042DF80ED97E0D8DD88E08093930060E0E3
:1005100088E890E099DE40E061E088E890E033DF31
:1005200080ED97E0C9DD40E060E888E890E02BDFEF
:10053000E0918800F09189000280F381E02D47E18D
:1005400050E06CE670E088E890E00995E091880062
:10055000F09189000280F381E02D42E050E064E8F0
:1005600070E088E890E00995C0E0D0E02097F1F3D2
:1005700047DDFCCFE8E8F0E01382128284E690E0E9
:100580009183808387E2848380E1818782E0828710
:1005900013860895F8940AC081E090E0F89406C0AC
:1005A000EE0FFF1F0590F491E02D0994F894FFCF12
:1005B00000000000D701C300F100F00048656C6C3A
:1005C0006F20576F726C64206F6E20417474696E77
:0805D000793835000D0A000026
:00000001FF
