:100000000FC033C032C031C030C010C42EC02DC0AC
:100010002CC02BC02AC029C0E3C4C9C451C45E0788
:1000200011241FBECFE5D2E0DEBFCDBF21E0ACE999
:10003000B0E001C01D92A733B207E1F710E0A0E6DF
:10004000B0E0ECE1F4E102C005900D92AC39B107EB
:10005000D9F710E0C0E1D0E003C02197FE01D6D966
:10006000CF30D107D1F798D681C7CACF809598E015
:1000700021E387FF03C0880F822701C0880F9150BA
:10008000C1F7682788E091E367FF03C0660F69271F
:1000900001C0660F8150C1F781E0461380E00895EA
:1000A0008AB582608ABD8AB581608ABD83B7887F40
:1000B000836083BF789489B7826089BF80B7807F6F
:1000C00080BF80B7806880BF8CB580648CBD8FEFA7
:1000D0008DBD80B7876080BF86B18877866886B916
:1000E000379A08958330910528F0880F991F049757
:1000F0000197F1F708953FB7F8948091DB00909154
:10010000DC00A091DD00B091DE0022B708B601FE50
:1001100005C02F3F19F00196A11DB11D3FBFBA2F99
:10012000A92F982F8827820F911DA11DB11DBC01F9
:10013000CD0143E0660F771F881F991F4A95D1F7BD
:100140000895CF92DF92EF92FF92CF93DF936B01EE
:100150007C01D1DFEB01C114D104E104F10499F079
:10016000CADF6C1B7D0B683E7340A8F3C114D10439
:10017000E104F10481F381E0C81AD108E108F10833
:10018000C851DC4FEDCFDF91CF91FF90EF90DF9022
:10019000CF9008952FB7F8946091D7007091D80050
:1001A0008091D9009091DA002FBF08959091C100FD
:1001B0008091C0009F5F891B8F7008959091BE0051
:1001C0008091BF00891B8F7008959091BE0080912F
:1001D000BF009817E1F3E091BE00EF5FEF70E0938E
:1001E000BE00F0E0E456FF4F808108959091C10079
:1001F0009F5F9F702091C0009217E1F3E92FF0E01C
:10020000E455FF4F80839093C1000895CF93909160
:1002100029019923A9F090912801903218F080E0EB
:1002200090E016C090912701E92FF0E0E456FF4FCF
:10023000808381E0890F809327018093280106C085
:10024000C82FB4DF882359F38C2FD0DF81E090E0F2
:10025000CF9108958091DF000895C09AC29ABA9A0A
:10026000B89A8FEF8FB98AE28DB980EF8EB9089571
:10027000CF92DF92EF92FF920F931F93CF93DF9372
:100280006C01EB017B01E40EF51E00E010E0CE15E1
:10029000DF0561F06991D601ED91FC910190F0814B
:1002A000E02DC6010995080F191FF1CFC801DF9194
:1002B000CF911F910F91FF90EF90DF90CF90089515
:1002C000FC0101900020E9F73197AF01481B590B61
:1002D000E0912A01F0912B010280F381E02DBC0115
:1002E0008AE291E009942F923F924F925F926F922F
:1002F0007F928F929F92AF92BF92CF92DF92EF92B6
:10030000FF920F931F93CF93DF93CDB7DEB7A597DF
:100310000FB6F894DEBF0FBECDBF6B017C01042F7A
:1003200020E030E0A90124D687FF11C0E0912A0126
:10033000F0912B010190F081E02D6DE28AE291E0D5
:1003400009955C01F7FAF094F7F8F09402C0A12C3B
:10035000B12C10E060E070E080E09FE3101739F00E
:1003600020E030E040E251E48DD71F5FF7CFA701D6
:10037000960124D72B013C01F2D74B016C0119A245
:10038000162F792DC6017E0121E2E20EF11CEAA2B0
:10039000FBA2612F2AE030E040E050E015D8822F28
:1003A0006AE009D8181B81E0E81AF1081A3014F441
:1003B000105D01C0195CF7011083122F732FCA0161
:1003C000232B242B252B29F7C7017ADFA80EB91E72
:1003D000002309F46EC0B401C601CED59B01AC0167
:1003E000C301B201EAD66B017C0188E890E068DFC6
:1003F000A80EB91E20E030E040E251E4C701B6018A
:100400001CD62B013C01A6D76B01770FEE08FF0825
:100410001601ECA2FDA2F7FE15C0E0912A01F091B1
:100420002B010190F081E02D6DE28AE291E00995C7
:100430004C01F094E094D094C094C11CD11CE11CF8
:10044000F11C02C0812C912C1C2D7D2DC70119A2FD
:10045000EAA0FBA0612F2AE030E040E050E0B4D7F2
:10046000822F6AE0A8D7181BF1E0EF1AF1081A30C2
:1004700014F4105D01C0195CF7011083122F732F63
:10048000CA01232B242B252B29F7C70119DF880D3F
:10049000991DA80EB91EB1018CA19DA16FD59B011C
:1004A000AC01C301B20189D66B017C01015009F096
:1004B000A1CFC501A5960FB6F894DEBF0FBECDBF84
:1004C000DF91CF911F910F91FF90EF90DF90CF9030
:1004D000BF90AF909F908F907F906F905F904F9064
:1004E0003F902F900895C29AC29BFECF8DE08A95CF
:1004F000F1F70000C0988AE08A95F1F700C0C29831
:10050000C09A779905C083E08093DF0080E008956A
:1005100081E008958EB98BE29DE09A95F1F7000095
:100520008DB9B29BFECF9AE09A95F1F700C08DB9D4
:10053000769BF2CF8DE08A95F1F700008FB19FEFA7
:100540009FB9B89A0895DF92EF92FF920F931F938D
:10055000CF93DF93FC019481990F9093C30083851F
:10056000682B81E08093D5006093C40083E0809382
:10057000DF00B9DF882309F450C012E0C3ECD0E0FB
:100580000FEFDD24D3948091DF0083709E012F5FF5
:100590003F4F7901882369F1C29888818FB980EF34
:1005A000B9DFB8988EEFB6DF9091DF0080FF0BC007
:1005B000892F817090FF05C081E08093DF0080E08B
:1005C0002CC092E00FC0892F8570843071F4809127
:1005D000C30081608093C300D092DF0084DF81116B
:1005E00015C09AE09093DF0018C09E7F9093DF00C3
:1005F0000BC0B89880EF8EDF8883113011F40FB9EB
:1006000001C01FB88EEF86DFE70103C012E0C3EC24
:10061000D0E0115009F0B7CF81E01092D5008823C7
:1006200091F0C098C29AB29BFECF3AE03A95F1F7AA
:1006300000C0C09A8DE08A95F1F70000759903C05B
:1006400084E08093DF00DF91CF911F910F91FF90A5
:10065000EF90DF9008950F931F93CF938C01C62FD7
:1006600072DF6C2F6460C8016EDF81E090E03ADDDC
:100670006C2F6B7FC80167DF82E390E0CF911F9101
:100680000F9130CD0F931F93CF93DF938C01D62F13
:10069000C42F607F642BDFDF6D2F6295607F6C2B32
:1006A000C801DF91CF911F910F91D5CFCF93DF93E9
:1006B000CDB7DEB728970FB6F894DEBF0FBECDBF1B
:1006C00098E0E0E6F0E0DE01119601900D929A9537
:1006D000E1F790913201981710F48FEF890FE82F0E
:1006E000F0E0EE0FFF1F81E090E08C0F9D1FE80F00
:1006F000F91F6081606840E08AE291E028960FB6B9
:10070000F894DEBF0FBECDBFDF91CF91BBCF41E0EC
:10071000B9DF81E090E008958EB98BE29EE09A9572
:10072000F1F78DB9B29BFECF96E09A95F1F700C034
:100730008DB9769BF3CF8EE08A95F1F78FB19FEF5D
:100740009FB9B89A0895FF920F931F93CF93DF93A9
:10075000162F042F21E02093DF00FC01208120FDD3
:1007600003C023E02093DF00C29AB29BFECFF6E0E5
:10077000FA95F1F700C0C09826E02A95F1F700C07D
:10078000C298C09A779902C087E018C0EC01FF2494
:10079000FA948091DF008370F9F0C29888818FB954
:1007A00080EFBADFB8988EEFB7DF80FF0FC090916F
:1007B000DF00892F817090FF05C086E08093DF0005
:1007C00080E02DC095E09093DF0029C08091DF008C
:1007D0008E7F8093DF000BC0B89880EF9DDF888309
:1007E000113011F4FFB801C01FB88EEF95DF115022
:1007F00021961111CECF002389F0C098C29AB29BE6
:10080000FECF86E08A95F1F700C0C09AEEE0EA9547
:10081000F1F7759903C088E08093DF0081E0DF91F4
:10082000CF911F910F91FF900895C3D41F920F9203
:100830000FB60F9211242F933F938F939F93AF93F3
:10084000BF938091D7009091D800A091D900B0912A
:10085000DA003091D60026E0230F2D3730F029E85A
:10086000230F0396A11DB11D03C00296A11DB11D4A
:100870002093D6008093D7009093D800A093D900FE
:10088000B093DA008091DB009091DC00A091DD0054
:10089000B091DE000196A11DB11D8093DB00909305
:1008A000DC00A093DD00B093DE00BF91AF919F917B
:1008B0008F913F912F910F900FBE0F901F90189521
:1008C0001F920F920FB60F9211242F938F939F9325
:1008D000EF93FF938091C2008230D9F128F48823EE
:1008E00049F08130D1F059C08430C9F198F0853099
:1008F000E1F153C08FB1882319F08FB1869529F5A6
:10090000789B02C081E001C084E08093C2001FB8E0
:10091000B89A41C08FB1811118C09091C0008091E8
:10092000C100981791F08091C0008F5F8F70809305
:10093000C000E091C000F0E0E455FF4F80818FB926
:1009400082E08093C200B89A0EC0B89888EA8DB948
:100950000AC083E08093C200B8981FB81CC085E02D
:100960008093C200B89880E717C084E08093C200EB
:100970009FB18091BF008F5F8F702091BE00821762
:1009800049F08093BF00E091BF00F0E0E456FF4FD4
:100990009083BDCFB8988EE78EB9FF91EF919F916C
:1009A0008F912F910F900FBE0F901F9018951F924F
:1009B0000F920FB60F9211248F931092C200B89825
:1009C000B29B04C0B09BFCCF88EA01C088EF8DB910
:1009D00080EF8EB98F910F900FBE0F901F901895DA
:1009E0001F920F920FB60F9211248F929F92AF9287
:1009F000BF92DF92EF92FF920F931F932F933F933B
:100A00004F935F936F937F938F939F93AF93BF9316
:100A1000EF93FF93CF93DF93CDB7DEB72697DEBF7B
:100A2000CDBFF8948091BC009091BD000196909349
:100A3000BD008093BC001092260110922501809188
:100A4000F5009091F600A091F700B091F800892B85
:100A50008A2B8B2BE1F09EDB0091F5001091F600C4
:100A60002091F7003091F800DC01CB01801B910B45
:100A7000A20BB30B0091F1001091F2002091F30052
:100A80003091F40080179107A207B30778F1009125
:100A9000EC00F090ED008091E800811104C0DDDBF6
:100AA00081E08093E8008091EE0011E0109329012D
:100AB000880F80939C0010932701109328018F2D9D
:100AC000A5DB802FA3DB41E0609128018CE990E059
:100AD0003ADE10922701109228011092290180918C
:100AE000250190912601892B09F46AC080E0DEDDA2
:100AF000E090E000F090E1000091E2001091E3004E
:100B00008091250190912601892B51F08091EA0076
:100B10009091EB00019721F0E12CF12C00E010E026
:100B20008AE890E0CDDB42E0B701C801DCDB82E976
:100B300090E0C6DB81E0BADD8090E4009090E500B3
:100B4000A090E600B090E7008091250190912601E9
:100B5000892B49F08091EA009091EB00019719F000
:100B6000812C912C540184E990E0AADB42E0C5017C
:100B7000B401B9DB8AE990E0A3DB789426960FB63E
:100B8000F894DEBF0FBECDBFDF91CF91FF91EF9103
:100B9000BF91AF919F918F917F916F915F914F9195
:100BA0003F912F911F910F91FF90EF90DF90BF9099
:100BB000AF909F908F900F900FBE0F901F90189541
:100BC0008091EE00880F816080939C0041E067E097
:100BD0008CE990E0B8DD10932701811103C01093D8
:100BE000280103C087E080932801D4DA4B015C011F
:100BF000D0902801DD2021F08D2D90E0019702C0DA
:100C0000DDDA90E00697A4F4C5DADC01CB0188199F
:100C10009909AA09BB090091F9001091FA002091E5
:100C2000FB003091FC0080179107A207B30700F387
:100C3000B1DADC01CB0188199909AA09BB09009135
:100C4000F9001091FA002091FB003091FC00801710
:100C50009107A207B307E0F58092F5009092F600A5
:100C6000A092F700B092F8008E010F5F1F4F7E0137
:100C700087E0E80EF11CDD2039F020912701D21227
:100C800008C08FEF9FEF0DC099DA8823D1F39DDA6A
:100C900008C0E22FF0E0E456FF4F80812F5F2093E1
:100CA0002701F80181938F01EE15FF0521F7EA80F6
:100CB000F9804B816E2D8F2DD9D9882381F00D813C
:100CC0001C814E81602F812FD1D981110BC007C0AB
:100CD00081E090E0909326018093250107CF82E088
:100CE00090E0F8CF6F2D70E0762F66276E0D711DA6
:100CF00080E090E041D124EB30E04FE25BE39DD116
:100D000020E030E044E352E458D22091FD003091DD
:100D1000FE004091FF00509100018FD12091010110
:100D200030910201409103015091040147D2609338
:100D3000E0007093E1008093E2009093E300612F64
:100D400070E0762F6627600F711D80E090E014D16F
:100D500025EB30E048EC5AE370D120910501309149
:100D60000601409107015091080167D120910901C6
:100D700030910A0140910B0150910C011FD26093F8
:100D8000E4007093E5008093E6009093E7001092F2
:100D9000260110922501AACE81B781BF81D9109278
:100DA0002701109228011092290157DAC09AC29A9D
:100DB000BA9AB89A8FEF8FB98AE28DB980EF8EB95F
:100DC00010922F0180913401823018F098E09093B6
:100DD0002F018093320162E370E080E090E0B1D9AE
:100DE000609135018AE291E0AEDB68EE73E080E06D
:100DF00090E0A7D960E38AE291E02DDC84E991E1FB
:100E000071D960E38AE291E026DC84E991E16AD954
:100E100060E38AE291E01FDC86E990E063D960E25A
:100E20008AE291E018DC60912F01606240E08AE282
:100E300091E028DC84E08093300140E06CE08AE2BD
:100E400091E020DC40E061E08AE291E01BDC80ED93
:100E500097E048D982E08093310140E066E08AE281
:100E600091E010DC40E062E08AE291E00BDC80ED92
:100E700097E038D988E08093350160E08AE291E01C
:100E800062DB40E061E08AE291E0FCDB80ED97E02C
:100E900029D984B7877F84BF81B5886181BD86E009
:100EA00081BD81B5806481BD2FEF81E19AE721503A
:100EB00080409040E1F700C00000F6CFCF93DF9371
:100EC000C0EED0E0188684EF91E0A0E0B0E0898B1E
:100ED0009A8BAB8BBC8B1D8A1E8A1F8A188E84E668
:100EE00090E0A0E0B0E0898F9A8FAB8FBC8F80E05C
:100EF00090E0A0E8BFE38D8F9E8FAF8FB8A319A2BB
:100F00001AA21BA21CA28DA39EA3AFA3B8A719A6C9
:100F10001AA61BA61CA688E1E8E6F0E0ADE0B1E069
:100F200001900D928A95E1F7109226011092250109
:100F300084E48E871B861A868CE28D8786E08C87F8
:100F4000188A1F868FEF8987EAE2F1E01382128206
:100F500084E890E09183808387E2848380E18187C5
:100F600082E082871386DF91CF910895F89454C26E
:100F700040D008F481E00895E89409C097FB3EF45E
:100F800090958095709561957F4F8F4F9F4F9923D6
:100F9000A9F0F92F96E9BB279395F6958795779554
:100FA0006795B795F111F8CFFAF4BB0F11F460FF14
:100FB0001BC06F5F7F4F8F4F9F4F16C0882311F06C
:100FC00096E911C0772321F09EE8872F762F05C080
:100FD000662371F096E8862F70E060E02AF09A951B
:100FE000660F771F881FDAF7880F9695879597F910
:100FF0000895990F0008550FAA0BE0E8FEEF1616AA
:101000001706E807F907C0F012161306E407F507FC
:1010100098F0621B730B840B950B39F40A2661F070
:10102000232B242B252B21F408950A2609F4A14013
:10103000A6958FEF811D811D08950AD080C071D0C3
:1010400028F076D018F0952309F062C067C0ABC0D5
:1010500087D0A8F39923D9F35523C9F3950F50E00E
:10106000551FAA27EE27FF27BB2700240894679562
:1010700020F4E20FF31FB41F0A1E220F331F441F78
:10108000AA1F6695A9F7779530F4F30FB41F0A1ECF
:10109000121E08F46395330F441FAA1F221F769572
:1010A00099F7879520F4B40F0A1E121E631F440F90
:1010B000AA1F221F331F8695A9F7862F712D602D39
:1010C00011249F5750408AF0E1F088234AF0EE0F38
:1010D000FF1FBB1F661F771F881F91505040A9F745
:1010E0009E3F510570F014C05EC05F3FECF3983E28
:1010F000DCF3869577956795B795F795E7959F5FAC
:10110000C1F7FE2B880F911D9695879597F9089545
:1011100097F99F6780E870E060E008959FEF80ECAA
:10112000089500240A94161617061806090608954D
:1011300000240A9412161306140605060895092EB3
:101140000394000C11F4882352F0BB0F40F4BF2B22
:1011500011F460FF04C06F5F7F4F8F4F9F4F089562
:1011600057FD9058440F551F59F05F3F71F0479558
:10117000880F97FB991F61F09F3F79F0879508953D
:10118000121613061406551FF2CF4695F1DF08C05C
:10119000161617061806991FF1CF86957105610579
:1011A00008940895E894BB2766277727CB0197F921
:1011B000089581E090E0F8942FC15058BB27AA27EA
:1011C0000ED0BDCFAEDF30F0B3DF20F031F49F3F63
:1011D00011F41EF4A3CF0EF4E095E7FB99CFE92FAD
:1011E000BFDF80F3BA17620773078407950718F00B
:1011F00071F49EF5D7CF0EF4E0950B2EBA2FA02DEB
:101200000B01B90190010C01CA01A0011124FF27B3
:10121000591B99F0593F50F4503E68F11A16F040AE
:10122000A22F232F342F4427585FF3CF46953795AD
:101230002795A795F0405395C9F77EF41F16BA0B72
:10124000620B730B840BBAF09150A1F0FF0FBB1F20
:10125000661F771F881FC2F70EC0BA0F621F731F69
:10126000841F48F4879577956795B795F7959E3FC6
:1012700008F0B3CF9395880F08F09927EE0F979554
:10128000879508950CD05BCF53DF40F04ADF30F0F4
:1012900021F45F3F19F03CCF511185CF3FCF60DF84
:1012A00098F39923C9F35523B1F3951B550BBB272D
:1012B000AA2762177307840738F09F5F5F4F220FDA
:1012C000331F441FAA1FA9F333D00E2E3AF0E0E8D3
:1012D00030D091505040E695001CCAF729D0FE2F1F
:1012E00027D0660F771F881FBB1F261737074807B1
:1012F000AB07B0E809F0BB0B802DBF01FF27935867
:101300005F4F2AF09E3F510568F002CF4CCF5F3F00
:10131000ECF3983EDCF3869577956795B795F7954E
:101320009F5FC9F7880F911D9695879597F9089546
:10133000E1E0660F771F881FBB1F621773078407E2
:10134000BA0720F0621B730B840BBA0BEE1F88F7F1
:10135000E095089504D06894B11125CF089508DF71
:1013600088F09F5790F0B92F9927B751A0F0D1F08E
:10137000660F771F881F991F1AF0BA95C9F712C018
:10138000B13081F00FDFB1E008950CCF672F782FD7
:101390008827B85F39F0B93FCCF386957795679584
:1013A000B395D9F73EF490958095709561957F4FF0
:1013B0008F4F9F4F0895002480FD060E660F11F099
:1013C0008695D1F7802D0895A1E21A2EAA1BBB1B8A
:1013D000FD010DC0AA1FBB1FEE1FFF1FA217B30701
:1013E000E407F50720F0A21BB30BE40BF50B661F17
:1013F000771F881F991F1A9469F7609570958095DB
:1014000090959B01AC01BD01CF010895EE0FFF1F28
:0C1410000590F491E02D0994F894FFCFB2
:10141C00000040001400540006011DC3C260454585
:10142C001015C7C61986C94760E34CC8F98427480C
:10143C0000000000870338012E0054656D70203ABF
:0C144C00200043005248203A20002500F8
:00000001FF
