:100000000FC033C032C031C030C020C22EC02DC09E
:100010002CC02BC02AC029C063C227C026C06403DD
:1000200011241FBECFE5D2E0DEBFCDBF10E0A0E6B9
:10003000B0E0E8E4F7E002C005900D92A438B10703
:10004000D9F720E0A4E8B0E001C01D92AF3AB207B2
:10005000E1F710E0C0E1D0E003C02197FE016CD3CE
:10006000CF30D107D1F7A5D23FC3CACFC09AC29A29
:10007000BA9AB89A8FEF8FB98AE28DB980EF8EB9AC
:10008000089578948AB582608ABD8AB581608ABDF8
:1000900083B7826083BF83B7816083BF89B7826083
:1000A00089BF80B7826080BF80B7816080BF329A8D
:1000B000319A3098379A08958330910528F0880F47
:1000C000991F04970197F1F708953FB7F89480912D
:1000D0009E0090919F00A091A000B091A10022B736
:1000E00008B601FE05C02F3F19F00196A11DB11DF4
:1000F0003FBFBA2FA92F982F8827820F911DA11DCE
:10010000B11DBC01CD0143E0660F771F881F991F09
:100110004A95D1F708958F929F92AF92BF92CF9256
:10012000DF92EF92FF926B017C01CFDF4B015C010C
:10013000C114D104E104F104E9F0C7DFDC01CB0113
:1001400088199909AA09BB09883E9340A105B10500
:1001500078F321E0C21AD108E108F10888EE880E90
:1001600083E0981EA11CB11CC114D104E104F10468
:1001700021F7DECFFF90EF90DF90CF90BF90AF9050
:100180009F908F900895AF92BF92CF92DF92EF929F
:10019000FF920F931F93CF93DF936C017B018B0131
:1001A000040F151FEB015E01AE18BF08C017D10781
:1001B00059F06991D601ED91FC910190F081E02D0B
:1001C000C6010995892B79F7C501DF91CF911F9160
:1001D0000F91FF90EF90DF90CF90BF90AF90089578
:1001E000089580E090E00895009799F0FC01019057
:1001F0000020E9F73197AF01481B590BE091A300AC
:10020000F091A4000280F381E02DBC0183EA90E02C
:10021000099480E090E00895C29AC29BFECF8DE0E1
:100220008A95F1F70000C0988AE08A95F1F700C03E
:10023000C298C09A779905C083E08093A20080E0BD
:10024000089581E008958EB98BE29DE09A95F1F7CB
:1002500000008DB9B29BFECF9AE09A95F1F700C0ED
:100260008DB9769BF2CF8DE08A95F1F700008FB1C2
:100270009FEF9FB9B89A0895DF92EF92FF920F9384
:100280001F93CF93DF93FC019481990F9093860085
:100290008385682B81E0809398006093870083E0DA
:1002A0008093A200B9DF882309F450C012E0C6E8A9
:1002B000D0E00FEFDD24D3948091A20083709E01E3
:1002C0002F5F3F4F7901882369F1C29888818FB9E8
:1002D00080EFB9DFB8988EEFB6DF9091A20080FF73
:1002E0000BC0892F817090FF05C081E08093A20030
:1002F00080E02CC092E00FC0892F8570843071F4AB
:1003000080918600816080938600D092A20084DF75
:10031000811115C09AE09093A20018C09E7F90931F
:10032000A2000BC0B89880EF8EDF8883113011F4E3
:100330000FB901C01FB88EEF86DFE70103C012E0DE
:10034000C6E8D0E0115009F0B7CF81E010929800D4
:10035000882391F0C098C29AB29BFECF3AE03A95BA
:10036000F1F700C0C09A8DE08A95F1F70000759909
:1003700003C084E08093A200DF91CF911F910F9181
:10038000FF90EF90DF9008950F931F93CF938C0110
:10039000C62F72DF6C2F6460C8016EDF81E090E0D1
:1003A0008BDE6C2F6B7FC80167DF82E390E0CF911B
:1003B0001F910F9181CE0F931F93CF93DF938C01E9
:1003C000D62FC42F607F642BDFDF6D2F6295607F97
:1003D0006C2BC801DF91CF911F910F91D5CFCF9397
:1003E000DF93CDB7DEB728970FB6F894DEBF0FBE08
:1003F000CDBF98E0E0E6F0E0DE01119601900D92AD
:100400009A95E1F79091AB00981710F48FEF890F50
:10041000E82FF0E0EE0FFF1F81E090E08C0F9D1FB2
:10042000E80FF91F6081606840E083EA90E0289659
:100430000FB6F894DEBF0FBECDBFDF91CF91BBCF1B
:1004400041E0B9DF81E090E0089550D11F920F9212
:100450000FB60F9211242F933F938F939F93AF93D7
:10046000BF9380919A0090919B00A0919C00B091C5
:100470009D003091990026E0230F2D3720F402963D
:10048000A11DB11D05C029E8230F0396A11DB11DB3
:100490002093990080939A0090939B00A0939C00D6
:1004A000B0939D0080919E0090919F00A091A0002C
:1004B000B091A1000196A11DB11D80939E00909363
:1004C0009F00A093A000B093A100BF91AF919F9116
:1004D0008F913F912F910F900FBE0F901F90189505
:1004E0001F920F920FB60F921124CF92DF92EF92CC
:1004F000FF920F931F932F933F934F935F936F93AD
:100500007F938F939F93AF93BF93EF93FF93CF937B
:10051000DF93CDB7DEB7A197DEBFCDBFF894809152
:1005200084009091850001969093850080938400CB
:1005300081E055DF209184003091850040E050E05B
:1005400019A28E010F5D1F4F8AE0C82ED12CE12C1D
:10055000F12CCA01B901A7019601CCD0605DF80168
:1005600062938F01211531054105510591F7CF01A6
:100570003BDE7894A1960FB6F894DEBF0FBECDBFD8
:10058000DF91CF91FF91EF91BF91AF919F918F91AB
:100590007F916F915F914F913F912F911F910F919B
:1005A000FF90EF90DF90CF900F900FBE0F901F90B5
:1005B000189567DD5BDD5ADD1092A8008091AD00D3
:1005C000823018F098E09093A8008093AB0062E32B
:1005D00070E080E090E09FDD6091AE0083EA90E003
:1005E0004BDE68EE73E080E090E095DD60E383EA47
:1005F00090E0CADE84E991E15FDD60E383EA90E0A8
:10060000C3DE84E991E158DD60E383EA90E0BCDE7B
:1006100086E990E051DD60E283EA90E0B5DE60912A
:10062000A800606240E083EA90E0C5DE84E0809349
:10063000A90040E06CE083EA90E0BDDE40E061E0CC
:1006400083EA90E0B8DE80ED97E036DD82E08093CB
:10065000AA0040E066E083EA90E0ADDE40E062E0C0
:1006600083EA90E0A8DE80ED97E026DD88E08093C5
:10067000AE0060E083EA90E0FFDD40E061E083EA05
:1006800090E099DE80ED97E017DD80E0A8DE84E75A
:1006900090E0AADD84B7877F84BF81B5886181BD82
:1006A00086E081BD81B5806481BDC0E0D0E02FEFE0
:1006B00081E19AE7215080409040E1F700C00000BE
:1006C0002097A9F39DDCF3CFE3EAF0E013821282D6
:1006D0008CE690E09183808387E2848380E1818748
:1006E00082E0828713860895F8942CC081E090E020
:1006F000F89428C0A1E21A2EAA1BBB1BFD010DC055
:10070000AA1FBB1FEE1FFF1FA217B307E407F507C1
:1007100020F0A21BB30BE40BF50B661F771F881F9D
:10072000991F1A9469F760957095809590959B0133
:10073000AC01BD01CF010895EE0FFF1F0590F491AC
:08074000E02D0994F894FFCFAD
:100748000000400014005400000000002002C30014
:10075800F100F00053656373207061737365642062
:040768003A20000033
:00000001FF
