:100000000C945D000C9485000C9485000C94850084
:100010000C9485000C9485000C943B060C94850090
:100020000C9485000C9485000C9485000C9485003C
:100030000C9485000C9485000C9485000C9485002C
:100040000C94F1050C9485000C94BF050C94990553
:100050000C9485000C9485000C9485000C9485000C
:100060000C946B040C948500000000080002010051
:100070000003040700000000000000000000000072
:10008000250028002B0000000000240027002A0083
:10009000040404040404040402020202020203032E
:1000A0000303030301020408102040800102040836
:1000B0001020010204081020B00611241FBECFEF4B
:1000C000D8E0DEBFCDBF11E0A0E0B1E0ECECFFE096
:1000D00002C005900D92A837B107D9F722E0A8E732
:1000E000B1E001C01D92AB3EB207E1F710E0CDE5F3
:1000F000D0E004C02197FE010E94DE07CC35D10775
:10010000C9F70E94B6060C94D6070C940000E1EBE8
:10011000F0E02491EDE9F0E08491882399F090E0FB
:10012000880F991FFC01EA57FF4FA591B491FC017C
:10013000E458FF4F859194918FB7F894EC91E22B9E
:10014000EC938FBF0895613208F049C09091CA02C4
:100150009111FCCF22E02093CA0221E02093C90232
:100160002FEF2093C8021092C7026093C602EBECF7
:10017000F2E0A6EAB2E020E0621721F031913D936F
:100180002F5FFACF1092A5022091A502880F822B33
:100190008093A5028091A402813061F41092A402A0
:1001A0008091A5028093BB008091BC0083FDF8CFB5
:1001B00085EC01C085EE8093BC008091CA0282303C
:1001C000E1F38091C8028F3F79F08091C8028032BC
:1001D00041F08091C802803331F094E005C091E095
:1001E00003C092E001C093E0892F08958DEF90E065
:1001F00090939602809395020895089585E091E08A
:1002000090939402809393020895089585ED8093CE
:10021000BC008091BC0084FDFCCF1092CA020895FE
:1002200040917002262F30E0240F311D213231051C
:10023000DCF42091CA022430C9F4FC0180E090E093
:10024000861758F4309170022191DC01A05BBD4FFC
:10025000A30FB11D2C930196F3CF80917002680F0C
:100260006093700280E0089581E0089582E008952F
:100270000895E091410280914002E81730F4F0E0E7
:10028000E05EFD4F808190E008958FEF9FEF08952D
:100290009091410280914002981750F4E92FF0E0CC
:1002A000E05EFD4F208130E09F5F9093410202C0ED
:1002B0002FEF3FEFC90108958091400290E0209117
:1002C0004102821B91090895CF92DF92EF92FF9233
:1002D0000F931F93CF93DF937C01CB018A01209171
:1002E0001F02222389F0EB016B01C40ED51ECC1531
:1002F000DD0569F06991D701ED91FC910190F081E4
:10030000E02DC7010995F3CF642F0E941001C801A9
:10031000DF91CF911F910F91FF90EF90DF90CF90E1
:100320000895CF93DF931F92CDB7DEB769832091F5
:100330001F022223D1F020914202203240F021E01E
:1003400030E0FC013383228380E090E015C080918F
:100350004302E82FF0E0E553FD4F998190838F5FD2
:10036000809343028093420205C061E0CE01019672
:100370000E94100181E090E00F90DF91CF910895ED
:10038000FC01248131E030931F0220931E02109261
:100390004302109242028485682BE0914402F0915E
:1003A00045020190F081E02D84E492E0099560918E
:1003B000420280911E020E94A300109243021092FA
:1003C000420210921F020895FC01538D448D252F87
:1003D00030E0842F90E0821B930B541710F0CF96DF
:1003E000089501970895FC01918D828D981761F011
:1003F000828DDF01A80FB11D5D968C91928D9F5F5C
:100400009F73928F90E008958FEF9FEF0895FC0106
:10041000918D828D981731F0828DE80FF11D858DB9
:1004200090E008958FEF9FEF0895FC01918D228D4C
:10043000892F90E0805C9F4F821B91098F739927D1
:100440000895FC01848DDF01A80FB11DA35ABF4F91
:100450002C91848D90E001968F739927848FA689C3
:10046000B7892C93A089B1898C91837080648C9317
:10047000938D848D981306C00288F389E02D8081C6
:100480008F7D80830895EF92FF920F931F93CF93F8
:10049000DF93EC0181E0888F9B8D8C8D981305C0D4
:1004A000E889F989808185FD26C0F62E0B8D10E044
:1004B0000F5F1F4F0F731127E02E8C8DE8120CC0B9
:1004C0000FB607FCFACFE889F989808185FFF5CF5F
:1004D000CE010E942102F1CF8B8DFE01E80FF11DAC
:1004E000E35AFF4FF0829FB7F8940B8FEA89FB899C
:1004F000808180620AC09FB7F894EE89FF8960838B
:10050000E889F98980818370806480839FBF81E05E
:1005100090E0DF91CF911F910F91FF90EF900895A0
:10052000CF93DF93EC01888D8823C9F0EA89FB899A
:10053000808185FD05C0A889B9898C9186FD0FC091
:100540000FB607FCF5CF808185FFF2CFA889B98966
:100550008C9185FFEDCFCE010E942102E7CFDF9184
:10056000CF91089581E891E00E94150221E0892B46
:1005700009F420E0822F089580E090E0892B29F093
:100580000E94B20281110C9400000895CF92DF9274
:10059000EF92FF920F931F93CF93DF936C017A0139
:1005A0008B01C0E0D0E0CE15DF0581F0D8016D9160
:1005B0008D01D601ED91FC910190F081E02DC601F5
:1005C0000995892B11F02196EECF7E01C701DF91AD
:1005D000CF911F910F91FF90EF90DF90CF900895F2
:1005E000089580E090E0089590E0FC01E859FF4F05
:1005F0002491FC01EC55FF4F3491FC01E057FF4F73
:10060000E491EE2309F43CC0222339F1233091F028
:1006100038F42130A9F0223001F584B58F7D12C065
:10062000273091F02830A1F02430B9F48091800077
:100630008F7D03C0809180008F77809380000DC0F4
:1006400084B58F7784BD09C08091B0008F7703C0D7
:100650008091B0008F7D8093B000F0E0EE0FFF1F1F
:10066000E458FF4FA591B4919FB7F894611104C06D
:100670008C913095382302C0EC913E2B3C939FBF68
:1006800008951092CA0281E08093C9021092A402D8
:1006900061E082E10E94F40261E083E10E94F402E1
:1006A000E9EBF0E080818E7F808380818D7F808385
:1006B00088E48093B80085E48093BC000895789422
:1006C00084B5826084BD84B5816084BD85B5826057
:1006D00085BD85B5816085BDEEE6F0E080818160F5
:1006E0008083E1E8F0E010828081826080838081F5
:1006F00081608083E0E8F0E0808181608083E1EBCD
:10070000F0E0808184608083E0EBF0E080818160B4
:100710008083EAE7F0E0808184608083808182606A
:100720008083808181608083808180688083109253
:10073000C10008958230910538F0880F991F880F05
:10074000991F05970197F1F708950F931F93CF9382
:100750008C01C62F0E94C0016C2F6460C8010E94EA
:10076000C00181E090E00E949A036C2F6B7FC8016A
:100770000E94C00182E390E0CF911F910F910C94F1
:100780009A030F931F93CF93DF938C01C62FD42F1F
:10079000607F642B0E94A50380E1C89FB0011124F3
:1007A0006D2BC801DF91CF911F910F910C94A50380
:1007B00040E060E887E992E00C94C1030F931F9337
:1007C000CF93DF938B01877098E0899FB00111244C
:1007D000606440E087E992E00E94C103E801085F9D
:1007E0001F4F6991E0919702F09198020190F0817A
:1007F000E02D87E992E00995C017D10791F7DF91C5
:10080000CF911F910F91089541E00E94C10381E0B3
:1008100090E008953FB7F89480917D0190917E011A
:10082000A0917F01B091800126B5A89B05C02F3F04
:1008300019F00196A11DB11D3FBFBA2FA92F982F06
:100840008827820F911DA11DB11DBC01CD0142E081
:10085000660F771F881F991F4A95D1F708958F92C9
:100860009F92AF92BF92CF92DF92EF92FF926B0175
:100870007C010E940A044B015C01C114D104E10413
:10088000F104F1F00E940A04DC01CB0188199909F6
:10089000AA09BB09883E9340A105B10570F321E088
:1008A000C21AD108E108F10888EE880E83E0981E8C
:1008B000A11CB11CC114D104E104F10419F7DDCF6E
:1008C000FF90EF90DF90CF90BF90AF909F908F9070
:1008D00008950E94D9071F920F920FB60F9211240C
:1008E0002F933F934F935F936F937F938F939F9338
:1008F000AF93BF93EF93FF938091B900887F8036C9
:1009000009F49CC068F5883209F45BC090F480312A
:1009100009F454C038F4882309F4F6C0883009F487
:100920004DC0F6C0883109F44CC0803209F45DC076
:10093000EFC0803409F468C048F4803309F455C02E
:10094000883309F0E5C08093C802D8C0803509F427
:100950004FC0883509F45DC0883409F0D9C0D6C0CD
:10096000883909F4C7C0A8F4883709F467C038F497
:10097000883609F463C0803709F460C0C9C088387C
:1009800009F4B8C0803909F45FC0803809F0C0C0EC
:100990005BC0803B09F486C038F4803A09F466C035
:1009A000883A09F47FC0B4C0803C09F4A7C0883CF1
:1009B00009F4A4C0883B09F48AC0AAC08091A502AA
:1009C00010C09091C7028091C602981770F5E0910F
:1009D000C70281E08E0F8093C702F0E0EA55FD4F19
:1009E00080818093BB0085EC86C08093C8028EC056
:1009F000E091C70281E08E0F8093C7028091BB0017
:100A0000F0E0EA55FD4F80839091C7028091C602C5
:100A10006EC0E091C70281E08E0F8093C702809183
:100A2000BB00F0E0EA55FD4F80838091C90281113F
:100A30006DC081E08093A40284EA61C083E080936A
:100A4000CA0210929202CFCF80919202803208F0B7
:100A500051C0E091920281E08E0F809392028091CA
:100A6000BB00F0E0EE58FD4F8083BDCF85EC809356
:100A7000BC001092CA0280919202803230F4E09160
:100A80009202F0E0EE58FD4F10826091920270E009
:100A9000E0919502F091960282E792E0099510921A
:100AA000920236C084E08093CA02109271021092C2
:100AB0007002E0919302F091940209958091700286
:100AC000811105C081E08093700210925002E09184
:100AD000710281E08E0F80937102F0E0E05BFD4FC8
:100AE00080818093BB009091710280917002981771
:100AF00008F479CF85E88093BC000AC085EC809328
:100B0000BC001092CA0204C01092C8020E940601E2
:100B1000FF91EF91BF91AF919F918F917F916F91D5
:100B20005F914F913F912F910F900FBE0F901F90AB
:100B300018951F920F920FB60F9211242F933F9387
:100B40004F935F936F937F938F939F93AF93BF93D5
:100B5000EF93FF9381E891E00E942102FF91EF91D2
:100B6000BF91AF919F918F917F916F915F914F91C5
:100B70003F912F910F900FBE0F901F9018951F92CD
:100B80000F920FB60F9211242F938F939F93EF9391
:100B9000FF93E0919101F09192018081E0919701A2
:100BA000F091980182FD12C0908180919A018F5F2F
:100BB0008F7320919B01821751F0E0919A01F0E030
:100BC000EF57FE4F958F80939A0101C08081FF916E
:100BD000EF919F918F912F910F900FBE0F901F90CB
:100BE00018951F920F920FB60F9211242F933F93D7
:100BF0008F939F93AF93BF938091790190917A01E6
:100C0000A0917B01B0917C013091780123E0230F0A
:100C10002D3720F40196A11DB11D05C026E8230F34
:100C20000296A11DB11D20937801809379019093C4
:100C30007A01A0937B01B0937C0180917D0190911A
:100C40007E01A0917F01B09180010196A11DB11D8F
:100C500080937D0190937E01A0937F01B0938001EA
:100C6000BF91AF919F918F913F912F910F900FBEA8
:100C70000F901F9018951F920F920FB60F9211248C
:100C80002F933F934F935F936F937F938F939F9394
:100C9000AF93BF93EF93FF9360E08DE00E94F40267
:100CA000FF91EF91BF91AF919F918F917F916F9144
:100CB0005F914F913F912F910F900FBE0F901F901A
:100CC0001895E4E4F2E01382128288EE93E0A0E04B
:100CD000B0E084839583A683B78382E591E0918316
:100CE00080830895E1E8F1E01382128288EE93E0B8
:100CF000A0E0B0E084839583A683B78380E491E08D
:100D00009183808385EC90E09587848784EC90E0E4
:100D10009787868780EC90E0918B808B81EC90E0C8
:100D2000938B828B82EC90E0958B848B86EC90E0A9
:100D3000978B868B118E128E138E148E0895E7E991
:100D4000F2E01382128284E391E091838083118622
:100D500087E2848384E1828784E083871486089510
:100D60000E9461060E9472060C949F060E945F0317
:100D7000E0919101F091920182E08083E0918D01F8
:100D8000F0918E011082E0918F01F09190018FEC33
:100D9000808310929901E0919501F091960186E08F
:100DA0008083E0919301F091940180818061808340
:100DB000E0919301F0919401808188608083E091BB
:100DC0009301F0919401808180688083E091930188
:100DD000F091940180818F7D8083E0918101F09179
:100DE00082010280F381E02D43E150E060E671E092
:100DF00081E891E00995E0918101F0918201028002
:100E0000F381E02D42E050E064E771E081E891E099
:100E100009951092410210924002109243021092E2
:100E200042020E9441030E94FE000E94F6001092BE
:100E30009C028091A202823018F098E090939C026C
:100E400080939F0262E370E080E090E00E942F04B4
:100E50006091A30287E992E00E94C00168EE73E00E
:100E600080E090E00E942F0460E387E992E00E9416
:100E7000A50384E991E10E949A0360E387E992E087
:100E80000E94A50384E991E10E949A0360E387E947
:100E900092E00E94A50386E990E00E949A0360E236
:100EA00087E992E00E94A50360919C02606240E0A5
:100EB00087E992E00E94C10384E080939D0240E0B4
:100EC0006CE087E992E00E94C10340E061E087E9BD
:100ED00092E00E94C10380ED97E00E949A03809106
:100EE000A00281110E94D80382E080939E0240E01C
:100EF00066E087E992E00E94C10340E062E087E992
:100F000092E00E94C10380ED97E00E949A0388E07E
:100F10008093A30260E087E992E00E94C00168E24A
:100F200071E080E00E94DE0360E271E081E00E94F7
:100F3000DE0368E171E082E00E94DE0360E171E0BF
:100F400083E00E94DE0368E071E084E00E94DE033B
:100F500060E071E085E00E94DE030E94D803C0E0FB
:100F60006C2F87E992E00E940404CF5FC630C1F77E
:100F7000F89484B7877F84BF8091600088618093F4
:100F80006000C09360008091600080648093600086
:100F900078940E94870061E08DE00E94F40268EE80
:100FA00073E080E090E00E942F04F9CFF8940C9455
:100FB000E40781E090E0F8940C94E407EE0FFF1F43
:0C0FC0000590F491E02D0994F894FFCF07
:100FCC000814080003040403000103161C080000A5
:100FDC000000100905030F000F03050910000000A5
:100FEC000000011214181E001E181412010000003B
:100FFC00000000000404C602F102F0020000000030
:10100C004302C602E40190021502F301070200003C
:10101C00000091016401F10238015C0148013901C1
:10102C00426173696320456E636F64657220546519
:08103C0073743A000D0A000074
:00000001FF
